:020000040000FA
:0100000000FF
:0100010000FE
:0100020000FD
:0100030000FC
:0100040007F4
:0100050007F3
:0100060000F9
:0100070000F8
:0100080000F7
:0100090000F6
:01000A0000F5
:01000B0007ED
:01000C0000F3
:01000D0000F2
:01000E0000F1
:01000F0007E9
:0100100000EF
:0100110000EE
:0100120000ED
:0100130007E5
:0100140000EB
:0100150000EA
:0100160000E9
:0100170000E8
:0100180000E7
:0100190009DD
:01001A0009DC
:01001B0000E4
:01001C0000E3
:01001D0000E2
:01001E0000E1
:01001F0000E0
:0100200000DF
:0100210009D5
:0100220000DD
:0100230000DC
:0100240000DB
:0100250000DA
:0100260009D0
:0100270000D8
:0100280000D7
:0100290000D6
:01002A0009CC
:01002B0000D4
:01002C0000D3
:01002D0000D2
:01002E0007CA
:01002F0007C9
:0100300000CF
:0100310000CE
:0100320000CD
:0100330000CC
:0100340000CB
:0100350000CA
:0100360000C9
:0100370000C8
:0100380007C0
:0100390000C6
:01003A0000C5
:01003B0000C4
:01003C0000C3
:01003D0007BB
:01003E0000C1
:01003F0000C0
:0100400000BF
:0100410007B7
:0100420002BB
:0100430002BA
:0100440002B9
:0100450008B2
:0100460002B7
:0100470002B6
:0100480008AF
:0100490002B4
:01004A0002B3
:01004B0002B2
:01004C0008AB
:01004D0002B0
:01004E0000B1
:01004F0000B0
:0100500002AD
:0100510000AE
:0100520002AB
:0100530002AA
:0100540002A9
:0100550000AA
:0100560000A9
:0100570000A8
:0100580000A7
:0100590000A6
:01005A0000A5
:01005B0000A4
:01005C0000A3
:01005D0002A0
:01005E0000A1
:01005F00029E
:01006000029D
:01006100009E
:01006200029B
:01006300029A
:01006400009B
:010065000298
:010066000297
:010067000296
:010068000295
:010069000294
:01006A000293
:01006B000292
:01006C00088B
:01006D00088A
:01006E00028F
:01006F00028E
:01007000028D
:010071000886
:01007200028B
:01007300028A
:010074000289
:010075000882
:010076000287
:010077000286
:010078000285
:01007900087E
:01007A000283
:01007B000282
:01007C000281
:01007D000280
:01007E00027F
:01007F00027E
:010080000877
:010081000876
:01008200027B
:01008300027A
:010084000873
:010085000872
:010086000277
:010087000870
:010088000275
:010089000274
:01008A000273
:01008B00086C
:01008C000271
:01008D000270
:01008E00026F
:01008F000868
:01009000026D
:010091000866
:010092000865
:01009300026A
:010094000269
:010095000268
:010096000267
:010097000860
:010098000265
:010099000264
:01009A000263
:01009B00085C
:01009C000261
:01009D000260
:01009E000859
:01009F000060
:0100A0000659
:0100A1000658
:0100A200005D
:0100A300005C
:0100A400005B
:0100A5000654
:0100A6000059
:0100A7000058
:0100A8000057
:0100A9000650
:0100AA000055
:0100AB000054
:0100AC000053
:0100AD00064C
:0100AE000051
:0100AF00024E
:0100B000004F
:0100B100024C
:0100B200004D
:0100B300004C
:0100B400004B
:0100B5000248
:0100B6000049
:0100B7000048
:0100B8000047
:0100B9000244
:0100BA000045
:0100BB000044
:0100BC000241
:0100BD000042
:0100BE000041
:0100BF000040
:0100C000003F
:0100C100003E
:0100C200003D
:0100C300003C
:0100C400003B
:0100C500003A
:0100C6000039
:0100C7000038
:0100C8000037
:0100C9000036
:0100CA000035
:0100CB000034
:0100CC000033
:0100CD000032
:0100CE000031
:0100CF000030
:0100D000002F
:0100D100002E
:0100D200002D
:0100D300002C
:0100D400002B
:0100D500002A
:0100D6000029
:0100D7000028
:0100D8000027
:0100D9000026
:0100DA000025
:0100DB000024
:0100DC000023
:0100DD000022
:0100DE000021
:0100DF000020
:0100E000001F
:0100E100001E
:0100E200001D
:0100E300001C
:0100E400001B
:0100E500001A
:0100E6000019
:0100E7000018
:0100E8000017
:0100E9000016
:0100EA000015
:0100EB000014
:0100EC000013
:0100ED000012
:0100EE000011
:0100EF000010
:0100F000000F
:0100F100000E
:0100F200000D
:0100F300000C
:0100F400000B
:0100F500000A
:0100F6000009
:0100F7000008
:0100F8000007
:0100F9000006
:0100FA000005
:0100FB000004
:0100FC000003
:0100FD000002
:0100FE000001
:0100FF000000
:00000001ff
