:020000040000FA
:0100000001FE
:0100010001FD
:0100020001FC
:0100030001FB
:0100040001FA
:0100050001F9
:0100060001F8
:0100070001F7
:0100080001F6
:0100090001F5
:01000A0000F5
:01000B0000F4
:01000C0000F3
:01000D0000F2
:01000E0000F1
:01000F0000F0
:0100100000EF
:0100110000EE
:0100120000ED
:0100130000EC
:0100140001EA
:0100150001E9
:0100160001E8
:0100170001E7
:0100180001E6
:0100190001E5
:01001A0001E4
:01001B0001E3
:01001C0001E2
:01001D0000E2
:01001E0000E1
:01001F0001DF
:0100200000DF
:0100210000DE
:0100220000DD
:0100230000DC
:0100240000DB
:0100250000DA
:0100260000D9
:0100270000D8
:0100280000D7
:0100290000D6
:01002A0000D5
:01002B0001D3
:01002C0001D2
:01002D0001D1
:01002E0001D0
:01002F0001CF
:0100300001CE
:0100310001CD
:0100320001CC
:0100330001CB
:0100340000CB
:0100350000CA
:0100360001C8
:0100370000C8
:0100380000C7
:0100390000C6
:01003A0000C5
:01003B0000C4
:01003C0000C3
:01003D0000C2
:01003E0000C1
:01003F0000C0
:0100400000BF
:0100410000BE
:0100420001BC
:0100430001BB
:0100440001BA
:0100450001B9
:0100460001B8
:0100470000B8
:0100480000B7
:0100490000B6
:01004A0000B5
:01004B0000B4
:01004C0000B3
:01004D0000B2
:01004E0001B0
:01004F0001AF
:0100500001AE
:0100510001AD
:0100520001AC
:0100530001AB
:0100540001AA
:0100550001A9
:0100560001A8
:0100570001A7
:0100580000A7
:0100590000A6
:01005A0000A5
:01005B0000A4
:01005C0000A3
:01005D0000A2
:01005E0000A1
:01005F0000A0
:01006000009F
:01006100009E
:01006200009D
:01006300009C
:01006400009B
:01006500009A
:010066000198
:010067000197
:010068000196
:010069000195
:01006A000194
:01006B000193
:01006C000192
:01006D000191
:01006E000190
:01006F00018F
:01007000008F
:01007100008E
:01007200008D
:01007300008C
:01007400008B
:01007500008A
:010076000089
:010077000088
:010078000087
:010079000086
:01007A000184
:01007B000183
:01007C000182
:01007D000181
:01007E000180
:01007F00017F
:01008000017E
:01008100017D
:01008200017C
:01008300017B
:01008400017A
:010085000179
:010086000079
:010087000078
:010088000077
:010089000076
:01008A000075
:01008B000074
:01008C000073
:01008D000072
:01008E000071
:01008F000070
:01009000016E
:01009100016D
:01009200016C
:01009300016B
:01009400016A
:010095000169
:010096000069
:010097000068
:010098000067
:010099000066
:01009A000065
:01009B000064
:01009C000063
:01009D000062
:01009E000061
:01009F00015F
:0100A000015E
:0100A100015D
:0100A200015C
:0100A300015B
:0100A400005B
:0100A500005A
:0100A6000059
:0100A7000058
:0100A8000057
:0100A9000056
:0100AA000055
:0100AB000054
:0100AC000053
:0100AD000052
:0100AE000150
:0100AF00014F
:0100B000014E
:0100B100014D
:0100B200014C
:0100B300014B
:0100B400004B
:0100B500004A
:0100B6000049
:0100B7000048
:0100B8000047
:0100B9000046
:0100BA000045
:0100BB000044
:0100BC000043
:0100BD000141
:0100BE000140
:0100BF00013F
:0100C000013E
:0100C100013D
:0100C200013C
:0100C300013B
:0100C400013A
:0100C5000139
:0100C6000138
:0100C7000137
:0100C8000136
:0100C9000135
:0100CA000134
:0100CB000133
:0100CC000132
:0100CD000131
:0100CE000130
:0100CF00012F
:0100D000012E
:0100D100012D
:0100D200012C
:0100D300012B
:0100D400012A
:0100D5000129
:0100D6000128
:0100D7000127
:0100D8000126
:0100D9000125
:0100DA000124
:0100DB000123
:0100DC000122
:0100DD000121
:0100DE000120
:0100DF00011F
:0100E000011E
:0100E100011D
:0100E200011C
:0100E300011B
:0100E400011A
:0100E5000119
:0100E6000118
:0100E7000117
:0100E8000116
:0100E9000115
:0100EA000114
:0100EB000113
:0100EC000112
:0100ED000111
:0100EE000110
:0100EF00010F
:0100F000010E
:0100F100010D
:0100F200010C
:0100F300010B
:0100F400010A
:0100F5000109
:0100F6000108
:0100F7000107
:0100F8000106
:0100F9000105
:0100FA000104
:0100FB000103
:0100FC000102
:0100FD000101
:0100FE000100
:0100FF0001FF
:00000001ff
