:020000040000FA
:0100000009F6
:0100010009F5
:0100020009F4
:0100030009F3
:0100040004F7
:0100050007F3
:0100060007F2
:0100070008F0
:0100080004F3
:0100090002F4
:01000A0009EC
:01000B0009EB
:01000C0009EA
:01000D0008EA
:01000E0004ED
:01000F0007E9
:0100100003EC
:0100110003EB
:0100120001EC
:0100130000EC
:0100140009E2
:0100150009E1
:0100160009E0
:0100170007E1
:0100180008DF
:0100190007DF
:01001A0004E1
:01001B0004E0
:01001C0002E1
:01001D0002E0
:01001E0007DA
:01001F0009D7
:0100200009D6
:0100210009D5
:0100220009D4
:0100230002DA
:0100240008D3
:0100250004D6
:0100260007D2
:0100270003D5
:0100280003D4
:0100290001D5
:01002A0000D5
:01002B0009CB
:01002C0009CA
:01002D0009C9
:01002E0004CD
:01002F0007C9
:0100300007C8
:0100310004CA
:0100320008C5
:0100330002CA
:0100340002C9
:0100350007C3
:0100360009C0
:0100370009BF
:0100380009BE
:0100390009BD
:01003A0002C3
:01003B0008BC
:01003C0004BF
:01003D0007BB
:01003E0003BE
:01003F0003BD
:0100400001BE
:0100410000BE
:0100420009B4
:0100430009B3
:0100440007B4
:0100450004B6
:0100460004B5
:0100470009AF
:0100480009AE
:0100490009AD
:01004A0008AD
:01004B0004B0
:01004C0007AC
:01004D0001B1
:01004E0009A8
:01004F0009A7
:0100500009A6
:0100510009A5
:0100520009A4
:0100530007A5
:0100540004A7
:0100550004A6
:0100560008A1
:0100570002A6
:0100580001A6
:0100590002A4
:01005A0004A1
:01005B00079D
:01005C00099A
:01005D000999
:01005E000998
:01005F00049C
:010060000798
:010061000896
:01006200039A
:01006300019B
:01006400009B
:01006500009A
:010066000990
:01006700098F
:01006800098E
:01006900098D
:01006A00088D
:01006B00078D
:01006C00078C
:01006D00048E
:01006E00048D
:01006F00028E
:010070000986
:010071000985
:010072000984
:010073000884
:010074000487
:010075000783
:010076000386
:010077000385
:010078000186
:010079000086
:01007A00097C
:01007B00097B
:01007C00097A
:01007D000979
:01007E000879
:01007F000779
:010080000778
:01008100047A
:010082000479
:01008300027A
:010084000972
:010085000971
:010086000970
:01008700096F
:01008800096E
:01008900086E
:01008A000471
:01008B00076D
:01008C000370
:01008D00036F
:01008E000170
:01008F000070
:010090000966
:01009100046A
:010092000766
:010093000765
:010094000467
:010095000862
:010096000960
:01009700095F
:01009800095E
:01009900085E
:01009A000461
:01009B00075D
:01009C000360
:01009D000161
:01009E000061
:01009F000957
:0100A000045B
:0100A1000757
:0100A2000459
:0100A3000854
:0100A4000952
:0100A5000951
:0100A6000950
:0100A7000850
:0100A8000453
:0100A900074F
:0100AA000352
:0100AB000351
:0100AC000152
:0100AD000052
:0100AE000948
:0100AF00044C
:0100B0000748
:0100B1000747
:0100B2000449
:0100B3000844
:0100B4000942
:0100B5000941
:0100B6000940
:0100B7000840
:0100B8000443
:0100B900073F
:0100BA000342
:0100BB000143
:0100BC000043
:0100BD000939
:0100BE000938
:0100BF000937
:0100C0000936
:0100C1000935
:0100C2000934
:0100C3000933
:0100C4000932
:0100C5000931
:0100C6000930
:0100C700092F
:0100C800092E
:0100C900092D
:0100CA00092C
:0100CB00092B
:0100CC00092A
:0100CD000929
:0100CE000928
:0100CF000927
:0100D0000926
:0100D1000925
:0100D2000924
:0100D3000923
:0100D4000922
:0100D5000921
:0100D6000920
:0100D700091F
:0100D800091E
:0100D900091D
:0100DA00091C
:0100DB00091B
:0100DC00091A
:0100DD000919
:0100DE000918
:0100DF000917
:0100E0000916
:0100E1000915
:0100E2000914
:0100E3000913
:0100E4000912
:0100E5000911
:0100E6000910
:0100E700090F
:0100E800090E
:0100E900090D
:0100EA00090C
:0100EB00090B
:0100EC00090A
:0100ED000909
:0100EE000908
:0100EF000907
:0100F0000906
:0100F1000905
:0100F2000904
:0100F3000903
:0100F4000902
:0100F5000901
:0100F6000900
:0100F70009FF
:0100F80009FE
:0100F90009FD
:0100FA0009FC
:0100FB0009FB
:0100FC0009FA
:0100FD0009F9
:0100FE0009F8
:0100FF0009F7
:00000001ff
