:020000040000FA
:0100000014EB
:0100010014EA
:0100020014E9
:0100030014E8
:0100040014E7
:0100050014E6
:0100060014E5
:0100070014E4
:0100080014E3
:0100090014E2
:01000A0014E1
:01000B0014E0
:01000C0014DF
:01000D0014DE
:01000E0014DD
:01000F0014DC
:0100100014DB
:0100110014DA
:0100120014D9
:0100130006E6
:0100140014D7
:0100150014D6
:0100160014D5
:0100170014D4
:0100180014D3
:0100190014D2
:01001A0014D1
:01001B0014D0
:01001C0014CF
:01001D0014CE
:01001E0014CD
:01001F0014CC
:0100200014CB
:0100210014CA
:0100220014C9
:0100230014C8
:0100240014C7
:0100250014C6
:0100260014C5
:0100270014C4
:0100280014C3
:0100290014C2
:01002A0006CF
:01002B0014C0
:01002C0014BF
:01002D0014BE
:01002E0014BD
:01002F0014BC
:0100300014BB
:0100310014BA
:0100320014B9
:0100330014B8
:0100340014B7
:0100350014B6
:0100360014B5
:0100370014B4
:0100380014B3
:0100390014B2
:01003A0014B1
:01003B0014B0
:01003C0014AF
:01003D0014AE
:01003E0014AD
:01003F0014AC
:0100400014AB
:0100410006B8
:0100420014A9
:0100430014A8
:0100440014A7
:0100450014A6
:0100460014A5
:0100470014A4
:0100480014A3
:0100490014A2
:01004A0014A1
:01004B0014A0
:01004C00149F
:01004D00149E
:01004E00149D
:01004F00149C
:01005000149B
:01005100149A
:010052001499
:010053001498
:010054001497
:010055001496
:010056001495
:010057001494
:010058001493
:010059001492
:01005A001491
:01005B001490
:01005C00148F
:01005D00148E
:01005E00148D
:01005F00148C
:01006000148B
:01006100148A
:010062001489
:010063001488
:010064000695
:010065000694
:010066001485
:010067001484
:010068001483
:010069001482
:01006A001481
:01006B001480
:01006C00147F
:01006D00147E
:01006E00147D
:01006F00147C
:01007000147B
:01007100147A
:010072001479
:010073001478
:010074001477
:010075001476
:010076001475
:010077001474
:010078001473
:010079000680
:01007A001471
:01007B001470
:01007C00146F
:01007D00146E
:01007E00146D
:01007F00146C
:01008000146B
:01008100146A
:010082001469
:010083001468
:010084001467
:010085001466
:010086001465
:010087001464
:010088001463
:010089001462
:01008A001461
:01008B001460
:01008C00145F
:01008D00145E
:01008E00145D
:01008F00066A
:01009000145B
:01009100145A
:010092001459
:010093001458
:010094001457
:010095001456
:010096001455
:010097001454
:010098001453
:010099001452
:01009A001451
:01009B001450
:01009C00144F
:01009D00144E
:01009E00065B
:01009F00144C
:0100A000144B
:0100A100144A
:0100A2001449
:0100A3001448
:0100A4001447
:0100A5001446
:0100A6001445
:0100A7001444
:0100A8001443
:0100A9001442
:0100AA001441
:0100AB001440
:0100AC00143F
:0100AD00064C
:0100AE00143D
:0100AF00143C
:0100B000143B
:0100B100143A
:0100B2001439
:0100B3001438
:0100B4001437
:0100B5001436
:0100B6001435
:0100B7001434
:0100B8001433
:0100B9001432
:0100BA001431
:0100BB001430
:0100BC00063D
:0100BD00142E
:0100BE00142D
:0100BF00142C
:0100C000142B
:0100C100142A
:0100C2001429
:0100C3001428
:0100C4001427
:0100C5001426
:0100C6001425
:0100C7001424
:0100C8001423
:0100C9001422
:0100CA001421
:0100CB001420
:0100CC00141F
:0100CD00141E
:0100CE00141D
:0100CF00141C
:0100D000141B
:0100D100141A
:0100D2001419
:0100D3001418
:0100D4001417
:0100D5001416
:0100D6001415
:0100D7001414
:0100D8001413
:0100D9001412
:0100DA001411
:0100DB001410
:0100DC00140F
:0100DD00140E
:0100DE00140D
:0100DF00140C
:0100E000140B
:0100E100140A
:0100E2001409
:0100E3001408
:0100E4001407
:0100E5001406
:0100E6001405
:0100E7001404
:0100E8001403
:0100E9001402
:0100EA001401
:0100EB001400
:0100EC0014FF
:0100ED0014FE
:0100EE0014FD
:0100EF0014FC
:0100F00014FB
:0100F10014FA
:0100F20014F9
:0100F30014F8
:0100F40014F7
:0100F50014F6
:0100F60014F5
:0100F70014F4
:0100F80014F3
:0100F90014F2
:0100FA0014F1
:0100FB0014F0
:0100FC0014EF
:0100FD0014EE
:0100FE0014ED
:0100FF0014EC
:00000001ff
