:020000040000FA
:0300000001FFFFFE
:0300010001FFFFFD
:0300020001FFFFFC
:0300030001FFFFFB
:0300040001FFFEFB
:0300050001FFFCFC
:0300060001FFFAFD
:0300070001FFF8FE
:0300080001FFF6FF
:0300090001FFF400
:03000A0001FFF102
:03000B0001FFED05
:03000C0001FFEA07
:03000D0001FFE60A
:03000E0001FFE20D
:03000F0001FFDD11
:0300100001FFD914
:0300110001FFD319
:0300120001FFCE1D
:0300130001FFC822
:0300140001FFC227
:0300150001FFBC2C
:0300160001FFB532
:0300170001FFAE38
:0300180001FFA73E
:0300190001FFA044
:03001A0001FF984B
:03001B0001FF9052
:03001C0001FF875A
:03001D0001FF7E62
:03001E0001FF756A
:03001F0001FF6C72
:0300200001FF627B
:0300210001FF5884
:0300220001FF4E8D
:0300230001FF4397
:0300240001FF38A1
:0300250001FF2DAB
:0300260001FF21B6
:0300270001FF16C0
:0300280001FF09CC
:0300290001FEFDD8
:03002A0001FEF0E4
:03002B0001FEE3F0
:03002C0001FED6FC
:03002D0001FEC809
:03002E0001FEBA16
:03002F0001FEAB24
:0300300001FE9D31
:0300310001FE8E3F
:0300320001FE7F4D
:0300330001FE6F5C
:0300340001FE5F6B
:0300350001FE4F7A
:0300360001FE3F89
:0300370001FE2E99
:0300380001FE1DA9
:0300390001FE0BBA
:03003A0001FDFACB
:03003B0001FDE8DC
:03003C0001FDD5EE
:03003D0001FDC3FF
:03003E0001FDB011
:03003F0001FD9C24
:0300400001FD8936
:0300410001FD7549
:0300420001FD615C
:0300430001FD4C70
:0300440001FD3883
:0300450001FD2298
:0300460001FD0DAC
:0300470001FCF7C2
:0300480001FCE1D7
:0300490001FCCBEC
:03004A0001FCB402
:03004B0001FC9E17
:03004C0001FC862E
:03004D0001FC6F44
:03004E0001FC575B
:03004F0001FC3F72
:0300500001FC268A
:0300510001FC0EA1
:0300520001FBF4BB
:0300530001FBDBD3
:0300540001FBC1EC
:0300550001FBA705
:0300560001FB8D1E
:0300570001FB7238
:0300580001FB5851
:0300590001FB3C6C
:03005A0001FB2186
:03005B0001FB05A1
:03005C0001FAE9BD
:03005D0001FACCD9
:03005E0001FAB0F4
:03005F0001FA9310
:0300600001FA752D
:0300610001FA5849
:0300620001FA3A66
:0300630001FA1B84
:0300640001F9FDA2
:0300650001F9DEC0
:0300660001F9BFDE
:0300670001F99FFD
:0300680001F9801B
:0300690001F95F3B
:03006A0001F93F5A
:03006B0001F91E7A
:03006C0001F8FD9B
:03006D0001F8DCBB
:03006E0001F8BADC
:03006F0001F899FC
:0300700001F8761E
:0300710001F8543F
:0300720001F83161
:0300730001F80E83
:0300740001F7EAA7
:0300750001F7C7C9
:0300760001F7A3EC
:0300770001F77E10
:0300780001F75A33
:0300790001F73557
:03007A0001F70F7C
:03007B0001F6EAA1
:03007C0001F6C4C6
:03007D0001F69EEB
:03007E0001F67711
:03007F0001F65136
:0300800001F6295D
:0300810001F60283
:0300820001F5DAAB
:0300830001F5B2D2
:0300840001F58AF9
:0300850001F56220
:0300860001F53948
:0300870001F51070
:0300880001F4E69A
:0300890001F4BCC3
:03008A0001F492EC
:03008B0001F46815
:03008C0001F43D3F
:03008D0001F41269
:03008E0001F3E794
:03008F0001F3BBBF
:0300900001F38FEA
:0300910001F36315
:0300920001F33740
:0300930001F30A6C
:0300940001F2DD99
:0300950001F2AFC6
:0300960001F281F3
:0300970001F25320
:0300980001F2254D
:0300990001F1F77B
:03009A0001F1C8A9
:03009B0001F198D8
:03009C0001F16906
:03009D0001F13935
:03009E0001F10964
:03009F0001F0D994
:0300A00001F0A8C4
:0300A10001F077F4
:0300A20001F04624
:0300A30001F01455
:0300A40001EFE287
:0300A50001EFB0B8
:0300A60001EF7DEA
:0300A70001EF4B1B
:0300A80001EF184D
:0300A90001EEE481
:0300AA0001EEB0B4
:0300AB0001EE7CE7
:0300AC0001EE481A
:0300AD0001EE144D
:0300AE0001EDDF82
:0300AF0001EDAAB6
:0300B00001ED74EB
:0300B10001ED3E20
:0300B20001ED0855
:0300B30001ECD28B
:0300B40001EC9BC1
:0300B50001EC64F7
:0300B60001EC2D2D
:0300B70001EBF565
:0300B80001EBBE9B
:0300B90001EB85D3
:0300BA0001EB4D0A
:0300BB0001EB1442
:0300BC0001EADB7B
:0300BD0001EAA2B3
:0300BE0001EA68EC
:0300BF0001EA2E25
:0300C00001E9F45F
:0300C10001E9BA98
:0300C20001E97FD2
:0300C30001E9440C
:0300C40001E90847
:0300C50001E8CD82
:0300C60001E891BD
:0300C70001E854F9
:0300C80001E81834
:0300C90001E7DB71
:0300CA0001E79EAD
:0300CB0001E760EA
:0300CC0001E72227
:0300CD0001E6E465
:0300CE0001E6A6A2
:0300CF0001E667E0
:0300D00001E6291D
:0300D10001E5E95D
:0300D20001E5AA9B
:0300D30001E56ADA
:0300D40001E52A19
:0300D50001E4EA59
:0300D60001E4A999
:0300D70001E468D9
:0300D80001E42719
:0300D90001E3E55B
:0300DA0001E3A39C
:0300DB0001E361DD
:0300DC0001E31F1E
:0300DD0001E2DC61
:0300DE0001E299A3
:0300DF0001E256E5
:0300E00001E21228
:0300E10001E1CE6C
:0300E20001E18AAF
:0300E30001E146F2
:0300E40001E10136
:0300E50001E0BC7B
:0300E60001E076C0
:0300E70001E03104
:0300E80001DFEB4A
:0300E90001DFA58F
:0300EA0001DF5ED5
:0300EB0001DF171B
:0300EC0001DED062
:0300ED0001DE89A8
:0300EE0001DE41EF
:0300EF0001DDF937
:0300F00001DDB17E
:0300F10001DD69C5
:0300F20001DD200D
:0300F30001DCD756
:0300F40001DC8D9F
:0300F50001DC44E7
:0300F60001DBFA31
:0300F70001DBB07A
:0300F80001DB65C4
:0300F90001DB1A0E
:0300FA0001DACF59
:0300FB0001DA84A3
:0300FC0001DA38EE
:0300FD0001D9EC3A
:0300FE0001D9A085
:0300FF0001D954D0
:0301000001D9071B
:0301010001D8BA68
:0301020001D86CB5
:0301030001D81F01
:0301040001D7D14F
:0301050001D7829D
:0301060001D734EA
:0301070001D6E539
:0301080001D69687
:0301090001D647D5
:03010A0001D5F725
:03010B0001D5A774
:03010C0001D557C3
:03010D0001D50613
:03010E0001D4B663
:03010F0001D465B3
:0301100001D41304
:0301110001D3C255
:0301120001D370A6
:0301130001D31EF7
:0301140001D2CB4A
:0301150001D2789C
:0301160001D225EE
:0301170001D1D241
:0301180001D17E94
:0301190001D12BE6
:03011A0001D0D63B
:03011B0001D0828E
:03011C0001D02DE2
:03011D0001CFD837
:03011E0001CF838B
:03011F0001CF2EDF
:0301200001CED835
:0301210001CE828A
:0301220001CE2BE0
:0301230001CDD536
:0301240001CD7E8C
:0301250001CD26E3
:0301260001CCCF3A
:0301270001CC7791
:0301280001CC1FE8
:0301290001CBC740
:03012A0001CB6E98
:03012B0001CB15F0
:03012C0001CABC49
:03012D0001CA63A1
:03012E0001CA09FA
:03012F0001C9AF54
:0301300001C955AD
:0301310001C8FA08
:0301320001C89F62
:0301330001C844BC
:0301340001C7E917
:0301350001C78D72
:0301360001C731CD
:0301370001C6D529
:0301380001C67984
:0301390001C61CE0
:03013A0001C5BF3D
:03013B0001C56299
:03013C0001C504F6
:03013D0001C4A654
:03013E0001C448B1
:03013F0001C3EA0F
:0301400001C38B6D
:0301410001C32CCB
:0301420001C2CD2A
:0301430001C26E88
:0301440001C20EE7
:0301450001C1AE47
:0301460001C14EA6
:0301470001C0ED07
:0301480001C08C67
:0301490001C02BC7
:03014A0001BFCA28
:03014B0001BF6889
:03014C0001BF06EA
:03014D0001BEA44C
:03014E0001BE42AD
:03014F0001BDDF10
:0301500001BD7C72
:0301510001BD19D4
:0301520001BCB538
:0301530001BC529A
:0301540001BBEDFF
:0301550001BB8962
:0301560001BB25C5
:0301570001BAC02A
:0301580001BA5B8E
:0301590001B9F5F4
:03015A0001B99058
:03015B0001B92ABD
:03015C0001B8C423
:03015D0001B85D89
:03015E0001B7F6F0
:03015F0001B78F56
:0301600001B728BC
:0301610001B6C123
:0301620001B6598A
:0301630001B5F1F2
:0301640001B58959
:0301650001B520C1
:0301660001B4B72A
:0301670001B44E92
:0301680001B3E5FB
:0301690001B37B64
:03016A0001B311CD
:03016B0001B2A737
:03016C0001B23DA0
:03016D0001B1D20B
:03016E0001B16775
:03016F0001B0FCE0
:0301700001B0914A
:0301710001B025B5
:0301720001AFB921
:0301730001AF4D8C
:0301740001AEE0F9
:0301750001AE7464
:0301760001AE07D0
:0301770001AD993E
:0301780001AD2CAA
:0301790001ACBE18
:03017A0001AC5085
:03017B0001ABE2F3
:03017C0001AB7361
:03017D0001AB04CF
:03017E0001AA953E
:03017F0001AA26AC
:0301800001A9B61C
:0301810001A9478A
:0301820001A8D6FB
:0301830001A8666A
:0301840001A7F6DA
:0301850001A7854A
:0301860001A714BA
:0301870001A6A22C
:0301880001A6319C
:0301890001A5BF0E
:03018A0001A54D7F
:03018B0001A4DAF2
:03018C0001A46863
:03018D0001A3F5D6
:03018E0001A38248
:03018F0001A30EBB
:0301900001A29A2F
:0301910001A227A1
:0301920001A1B216
:0301930001A13E89
:0301940001A0C9FE
:0301950001A05472
:03019600019FDFE7
:03019700019F6A5B
:03019800019EF4D1
:03019900019E7E46
:03019A00019E08BB
:03019B00019D9231
:03019C00019D1BA7
:03019D00019CA41E
:03019E00019C2D94
:03019F00019BB60B
:0301A000019B3E82
:0301A100019AC6FA
:0301A200019A4E71
:0301A3000199D6E9
:0301A40001995D61
:0301A5000198E4DA
:0301A60001986B52
:0301A7000197F2CB
:0301A80001977844
:0301A9000196FEBE
:0301AA0001968437
:0301AB0001960AB0
:0301AC0001958F2B
:0301AD00019514A5
:0301AE0001949920
:0301AF0001941E9A
:0301B0000193A216
:0301B10001932691
:0301B2000192AA0D
:0301B30001922E88
:0301B4000191B105
:0301B50001913580
:0301B6000190B8FD
:0301B70001903A7A
:0301B800018FBDF7
:0301B900018F3F74
:0301BA00018EC1F2
:0301BB00018E436F
:0301BC00018DC4EE
:0301BD00018D466B
:0301BE00018CC7EA
:0301BF00018C4769
:0301C000018BC8E8
:0301C100018B4867
:0301C200018AC8E7
:0301C300018A4866
:0301C4000189C8E6
:0301C50001894766
:0301C6000188C6E7
:0301C70001884567
:0301C8000187C4E8
:0301C90001874269
:0301CA000186C1EA
:0301CB0001863F6B
:0301CC000185BCEE
:0301CD0001853A6F
:0301CE000184B7F2
:0301CF0001843474
:0301D0000183B1F7
:0301D10001832D7A
:0301D2000182AAFD
:0301D30001822680
:0301D4000181A204
:0301D50001811D88
:0301D6000180990C
:0301D70001801490
:0301D800017F8F15
:0301D900017F0A99
:0301DA00017E841F
:0301DB00017DFEA5
:0301DC00017D782A
:0301DD00017CF2B0
:0301DE00017C6C35
:0301DF00017BE5BC
:0301E000017B5E42
:0301E100017AD7C9
:0301E200017A4F50
:0301E3000179C8D7
:0301E4000179405E
:0301E5000178B8E6
:0301E6000178306D
:0301E7000177A7F6
:0301E80001771E7E
:0301E90001769606
:0301EA0001760C8F
:0301EB0001758318
:0301EC000174F9A2
:0301ED0001746F2B
:0301EE000173E5B5
:0301EF0001735B3E
:0301F0000172D1C8
:0301F10001724652
:0301F2000171BBDD
:0301F30001713067
:0301F4000170A4F3
:0301F5000170197D
:0301F600016F8D09
:0301F700016F0194
:0301F800016E7421
:0301F900016DE8AD
:0301FA00016D5B39
:0301FB00016CCEC6
:0301FC00016C4152
:0301FD00016BB3E0
:0301FE00016B266C
:0301FF00016A98FA
:03020000016A0A86
:0302010001697C14
:030202000168EDA3
:0302030001685E31
:030204000167CFC0
:030205000167404E
:030206000166B1DD
:030207000166216C
:03020800016592FB
:030209000165028A
:03020A000164711B
:03020B000163E1AB
:03020C000163503B
:03020D000162BFCC
:03020E0001622E5C
:03020F0001619DED
:0302100001610B7E
:0302110001607A0F
:03021200015FE8A1
:03021300015F5632
:03021400015EC3C5
:03021500015E3156
:03021600015D9EE9
:03021700015D0B7B
:03021800015C780E
:03021900015BE4A2
:03021A00015B5134
:03021B00015ABDC8
:03021C00015A295B
:03021D00015995EF
:03021E0001590083
:03021F0001586B18
:030220000157D7AC
:0302210001574141
:030222000156ACD6
:030223000156176A
:0302240001558100
:030225000154EB96
:030226000154552B
:030227000153BFC1
:0302280001532857
:03022900015291EE
:03022A000151FB84
:03022B000151631B
:03022C000150CCB2
:03022D0001503548
:03022E00014F9DE0
:03022F00014F0577
:03023000014E6D0F
:03023100014DD4A8
:03023200014D3C3F
:03023300014CA3D8
:03023400014C0A70
:03023500014B7109
:03023600014AD8A2
:03023700014A3E3B
:030238000149A4D5
:0302390001490A6E
:03023A0001487008
:03023B000147D6A2
:03023C0001473B3C
:03023D000146A1D6
:03023E0001460670
:03023F0001456B0B
:030240000144CFA7
:0302410001443441
:03024200014398DD
:030243000142FC79
:0302440001426014
:030245000141C4B0
:030246000141274C
:0302470001408AE9
:03024800013FEE85
:03024900013F5121
:03024A00013EB3BF
:03024B00013E165B
:03024C00013D78F9
:03024D00013CDA97
:03024E00013C3C34
:03024F00013B9ED2
:03025000013B006F
:03025100013A610E
:030252000139C2AD
:030253000139234B
:03025400013884EA
:030255000137E589
:0302560001374528
:030257000136A5C8
:0302580001360666
:0302590001356507
:03025A000134C5A7
:03025B0001342546
:03025C00013384E7
:03025D000132E388
:03025E0001324228
:03025F000131A1C9
:030260000130FF6B
:0302610001305E0B
:03026200012FBCAD
:03026300012F1A4E
:03026400012E78F0
:03026500012DD692
:03026600012D3334
:03026700012C91D6
:03026800012BEE79
:03026900012B4B1B
:03026A00012AA7BF
:03026B00012A0461
:03026C0001296005
:03026D000128BDA8
:03026E000128194B
:03026F00012775EF
:030270000126D094
:0302710001262C37
:03027200012587DC
:030273000124E281
:0302740001243D25
:03027500012398CA
:030276000122F36F
:0302770001224D14
:030278000121A8B9
:030279000121025E
:03027A0001205C04
:03027B00011FB5AB
:03027C00011F0F50
:03027D00011E68F7
:03027E00011DC29D
:03027F00011D1B43
:03028000011C74EA
:03028100011BCC92
:03028200011B2538
:03028300011A7DE0
:030284000119D687
:0302850001192E2E
:03028600011886D6
:030287000117DD7F
:0302880001173526
:0302890001168CCF
:03028A000115E378
:03028B0001153A20
:03028C00011491C9
:03028D000113E872
:03028E0001133F1A
:03028F00011295C4
:030290000111EB6E
:0302910001114117
:03029200011097C1
:03029300010FED6B
:03029400010F4215
:03029500010E98BF
:03029600010DED6A
:03029700010D4214
:03029800010C97BF
:03029900010BEC6A
:03029A00010B4015
:03029B00010A95C0
:03029C000109E96C
:03029D0001093D17
:03029E00010891C3
:03029F000107E56F
:0302A0000107381B
:0302A10001068CC7
:0302A2000105DF74
:0302A30001053220
:0302A400010485CD
:0302A5000103D87A
:0302A60001032B26
:0302A70001027DD4
:0302A8000101D081
:0302A9000101222E
:0302AA00010074DC
:0302AB0000FFC68B
:0302AC0000FF1838
:0302AD0000FE69E7
:0302AE0000FDBB95
:0302AF0000FD0C43
:0302B00000FC5DF2
:0302B10000FBAEA1
:0302B20000FAFF50
:0302B30000FA50FE
:0302B40000F9A0AE
:0302B50000F8F15D
:0302B60000F8410C
:0302B70000F791BC
:0302B80000F6E16C
:0302B90000F6311B
:0302BA0000F580CC
:0302BB0000F4D07C
:0302BC0000F41F2C
:0302BD0000F36EDD
:0302BE0000F2BD8E
:0302BF0000F20C3E
:0302C00000F15BEF
:0302C10000F0AAA0
:0302C20000EFF852
:0302C30000EF4603
:0302C40000EE94B5
:0302C50000EDE366
:0302C60000ED3018
:0302C70000EC7ECA
:0302C80000EBCC7C
:0302C90000EB192E
:0302CA0000EA67E0
:0302CB0000E9B493
:0302CC0000E90145
:0302CD0000E84EF8
:0302CE0000E79AAC
:0302CF0000E6E75F
:0302D00000E63312
:0302D10000E580C5
:0302D20000E4CC79
:0302D30000E4182C
:0302D40000E364E0
:0302D50000E2B094
:0302D60000E1FB49
:0302D70000E147FC
:0302D80000E092B1
:0302D90000DFDE65
:0302DA0000DF2919
:0302DB0000DE74CE
:0302DC0000DDBE84
:0302DD0000DD0938
:0302DE0000DC54ED
:0302DF0000DB9EA3
:0302E00000DAE958
:0302E10000DA330D
:0302E20000D97DC3
:0302E30000D8C779
:0302E40000D8102F
:0302E50000D75AE5
:0302E60000D6A49B
:0302E70000D5ED52
:0302E80000D53608
:0302E90000D47FBF
:0302EA0000D3C876
:0302EB0000D3112C
:0302EC0000D25AE3
:0302ED0000D1A39A
:0302EE0000D0EB52
:0302EF0000D03408
:0302F00000CF7CC0
:0302F10000CEC478
:0302F20000CE0C2F
:0302F30000CD54E7
:0302F40000CC9C9F
:0302F50000CBE358
:0302F60000CB2B0F
:0302F70000CA72C8
:0302F80000C9B981
:0302F90000C90039
:0302FA0000C847F2
:0302FB0000C78EAB
:0302FC0000C6D564
:0302FD0000C61C1C
:0302FE0000C562D6
:0302FF0000C4A98F
:0303000000C3EF48
:0303010000C33501
:0303020000C27BBB
:0303030000C1C175
:0303040000C1072E
:0303050000C04DE8
:0303060000BF92A3
:0303070000BED85D
:0303080000BE1D17
:0303090000BD63D1
:03030A0000BCA88C
:03030B0000BBED47
:03030C0000BB3201
:03030D0000BA76BD
:03030E0000B9BB78
:03030F0000B90032
:0303100000B844EE
:0303110000B789A9
:0303120000B6CD65
:0303130000B61120
:0303140000B555DC
:0303150000B49998
:0303160000B3DD54
:0303170000B32010
:0303180000B264CC
:0303190000B1A789
:03031A0000B0EB45
:03031B0000B02E01
:03031C0000AF71BE
:03031D0000AEB47B
:03031E0000ADF738
:03031F0000AD3AF4
:0303200000AC7DB1
:0303210000ABBF6F
:0303220000AB022B
:0303230000AA44E9
:0303240000A987A6
:0303250000A8C964
:0303260000A80B21
:0303270000A74DDF
:0303280000A68F9D
:0303290000A5D15B
:03032A0000A51318
:03032B0000A454D7
:03032C0000A39695
:03032D0000A2D754
:03032E0000A21911
:03032F0000A15AD0
:0303300000A09B8F
:03033100009FDC4E
:03033200009F1D0C
:03033300009E5ECB
:03033400009D9E8B
:03033500009CDF4A
:03033600009C2008
:03033700009B60C8
:03033800009AA187
:030339000099E147
:03033A0000992106
:03033B00009861C6
:03033C000097A186
:03033D000096E146
:03033E0000962105
:03033F00009561C5
:030340000094A086
:030341000093E046
:0303420000931F06
:0303430000925FC6
:0303440000919E87
:030345000090DD48
:0303460000901C08
:03034700008F5BC9
:03034800008E9A8A
:03034900008DD94B
:03034A00008D180B
:03034B00008C56CD
:03034C00008B958E
:03034D00008AD44F
:03034E00008A1210
:03034F00008950D2
:0303500000888F93
:030351000087CD55
:0303520000870B16
:03035300008649D8
:030354000085879A
:030355000084C55C
:030356000084021E
:03035700008340E0
:0303580000827EA2
:030359000081BB65
:03035A000080F927
:03035B00008036E9
:03035C00007F73AC
:03035D00007EB16E
:03035E00007DEE31
:03035F00007D2BF3
:03036000007C68B6
:03036100007BA579
:03036200007AE23C
:03036300007A1EFF
:0303640000795BC2
:0303650000789885
:030366000077D449
:030367000077110B
:0303680000764DCF
:0303690000758A92
:03036A000074C656
:03036B0000740219
:03036C0000733EDD
:03036D0000727AA1
:03036E000071B665
:03036F000070F229
:0303700000702EEC
:03037100006F6AB0
:03037200006EA674
:03037300006DE139
:03037400006D1DFC
:03037500006C58C1
:03037600006B9485
:03037700006ACF4A
:03037800006A0B0D
:03037900006946D2
:03037A0000688197
:03037B000067BC5C
:03037C000066F721
:03037D00006632E5
:03037E0000656DAA
:03037F000064A86F
:030380000063E334
:0303810000631EF8
:03038200006258BE
:0303830000619383
:030384000060CE48
:030385000060080D
:03038600005F43D2
:03038700005E7D98
:03038800005DB75E
:03038900005CF223
:03038A00005C2CE8
:03038B00005B66AE
:03038C00005AA074
:03038D000059DA3A
:03038E00005914FF
:03038F0000584EC5
:030390000057888B
:030391000056C251
:030392000055FC17
:03039300005536DC
:0303940000546FA3
:030395000053A969
:030396000052E32F
:0303970000521CF5
:03039800005156BB
:0303990000508F82
:03039A00004FC948
:03039B00004F020E
:03039C00004E3BD5
:03039D00004D759B
:03039E00004CAE62
:03039F00004BE729
:0303A000004B20EF
:0303A100004A59B6
:0303A2000049927D
:0303A3000048CB44
:0303A4000048040A
:0303A50000473DD1
:0303A60000467698
:0303A7000045AF5F
:0303A8000044E826
:0303A900004421EC
:0303AA00004359B4
:0303AB000042927B
:0303AC000041CB42
:0303AD0000410309
:0303AE0000403CD0
:0303AF00003F7498
:0303B000003EAD5F
:0303B100003DE527
:0303B200003D1DEE
:0303B300003C56B5
:0303B400003B8E7D
:0303B500003AC645
:0303B6000039FF0C
:0303B700003937D3
:0303B80000386F9B
:0303B9000037A763
:0303BA000036DF2B
:0303BB00003617F2
:0303BC0000354FBA
:0303BD0000348782
:0303BE000033BF4A
:0303BF000032F712
:0303C00000322FD9
:0303C100003167A1
:0303C20000309F69
:0303C300002FD731
:0303C400002F0FF8
:0303C500002E46C1
:0303C600002D7E89
:0303C700002CB651
:0303C800002BEE19
:0303C900002B25E1
:0303CA00002A5DA9
:0303CB0000299571
:0303CC000028CC3A
:0303CD0000280401
:0303CE0000273BCA
:0303CF0000267392
:0303D0000025AA5B
:0303D1000024E223
:0303D200002419EB
:0303D300002351B3
:0303D4000022887C
:0303D5000021BF45
:0303D6000020F70D
:0303D70000202ED5
:0303D800001F659E
:0303D900001E9D66
:0303DA00001DD42F
:0303DB00001D0BF7
:0303DC00001C43BF
:0303DD00001B7A88
:0303DE00001AB151
:0303DF000019E81A
:0303E00000191FE2
:0303E100001857AA
:0303E20000178E73
:0303E3000016C53C
:0303E4000015FC05
:0303E500001533CD
:0303E60000146A96
:0303E7000013A15F
:0303E8000012D828
:0303E90000120FF0
:0303EA00001147B8
:0303EB0000107E81
:0303EC00000FB54A
:0303ED00000EEC13
:0303EE00000E23DB
:0303EF00000D5AA4
:0303F000000C916D
:0303F100000BC836
:0303F200000AFFFF
:0303F300000A36C7
:0303F40000096D90
:0303F5000008A459
:0303F6000007DB22
:0303F700000711EB
:0303F800000648B4
:0303F90000057F7D
:0303FA000004B646
:0303FB000003ED0F
:0303FC00000324D7
:0303FD0000025BA0
:0303FE0000019269
:0303FF000000C932
:00000001ff
