:020000040000FA
:0100000010EF
:0100010008F6
:0100020004F9
:0100030002FA
:0100040002F9
:0100050002F8
:0100060002F7
:0100070002F6
:0100080002F5
:0100090002F4
:01000A0001F4
:01000B0001F3
:01000C0001F2
:01000D0001F1
:01000E0001F0
:01000F0001EF
:0100100001EE
:0100110001ED
:0100120001EC
:0100130001EB
:0100140010DB
:0100150008E2
:0100160004E5
:0100170002E6
:0100180002E5
:0100190002E4
:01001A0002E3
:01001B0002E2
:01001C0010D3
:01001D0001E1
:01001E0001E0
:01001F0002DE
:0100200001DE
:0100210001DD
:0100220001DC
:0100230001DB
:0100240001DA
:0100250001D9
:0100260001D8
:0100270001D7
:0100280001D6
:0100290001D5
:01002A0001D4
:01002B0010C4
:01002C0008CB
:01002D0004CE
:01002E0002CF
:01002F0002CE
:0100300002CD
:0100310002CC
:0100320002CB
:0100330002CA
:0100340001CA
:0100350001C9
:0100360002C7
:0100370001C7
:0100380001C6
:0100390001C5
:01003A0001C4
:01003B0001C3
:01003C0001C2
:01003D0001C1
:01003E0001C0
:01003F0001BF
:0100400001BE
:0100410001BD
:0100420004B9
:0100430002BA
:0100440002B9
:0100450002B8
:0100460002B7
:0100470001B7
:0100480001B6
:0100490001B5
:01004A0001B4
:01004B0001B3
:01004C0001B2
:01004D0001B1
:01004E0010A1
:01004F0008A8
:0100500004AB
:0100510002AC
:0100520002AB
:0100530002AA
:0100540002A9
:0100550002A8
:0100560002A7
:0100570002A6
:0100580001A6
:0100590001A5
:01005A0001A4
:01005B0001A3
:01005C0001A2
:01005D0001A1
:01005E0001A0
:01005F00019F
:01006000019E
:01006100019D
:01006200019C
:01006300019B
:01006400019A
:010065000199
:010066001089
:010067000890
:010068000493
:010069000294
:01006A000293
:01006B000292
:01006C000291
:01006D000290
:01006E00028F
:01006F00028E
:01007000018E
:01007100018D
:01007200018C
:01007300018B
:01007400018A
:010075000189
:010076000188
:010077000187
:010078000186
:010079000185
:01007A001075
:01007B00087C
:01007C00047F
:01007D000280
:01007E00027F
:01007F00027E
:01008000027D
:01008100027C
:01008200027B
:01008300027A
:010084000873
:010085000476
:010086000178
:010087000177
:010088000176
:010089000175
:01008A000174
:01008B000173
:01008C000172
:01008D000171
:01008E000170
:01008F00016F
:01009000026D
:01009100026C
:01009200026B
:01009300026A
:010094000269
:010095000268
:010096000168
:010097000167
:010098000166
:010099000165
:01009A000164
:01009B000163
:01009C000162
:01009D000161
:01009E000160
:01009F00025E
:0100A000025D
:0100A100025C
:0100A200025B
:0100A300025A
:0100A400015A
:0100A5000159
:0100A6000158
:0100A7000157
:0100A8000156
:0100A9000155
:0100AA000154
:0100AB000153
:0100AC000152
:0100AD000151
:0100AE00024F
:0100AF00024E
:0100B000024D
:0100B100024C
:0100B200024B
:0100B300024A
:0100B400014A
:0100B5000149
:0100B6000148
:0100B7000147
:0100B8000146
:0100B9000145
:0100BA000144
:0100BB000143
:0100BC000142
:0100BD001032
:0100BE001031
:0100BF001030
:0100C000102F
:0100C100102E
:0100C200102D
:0100C300102C
:0100C400102B
:0100C500102A
:0100C6001029
:0100C7001028
:0100C8001027
:0100C9001026
:0100CA001025
:0100CB001024
:0100CC001023
:0100CD001022
:0100CE001021
:0100CF001020
:0100D000101F
:0100D100101E
:0100D200101D
:0100D300101C
:0100D400101B
:0100D500101A
:0100D6001019
:0100D7001018
:0100D8001017
:0100D9001016
:0100DA001015
:0100DB001014
:0100DC001013
:0100DD001012
:0100DE001011
:0100DF001010
:0100E000100F
:0100E100100E
:0100E200100D
:0100E300100C
:0100E400100B
:0100E500100A
:0100E6001009
:0100E7001008
:0100E8001007
:0100E9001006
:0100EA001005
:0100EB001004
:0100EC001003
:0100ED001002
:0100EE001001
:0100EF001000
:0100F00010FF
:0100F10010FE
:0100F20010FD
:0100F30010FC
:0100F40010FB
:0100F50010FA
:0100F60010F9
:0100F70010F8
:0100F80010F7
:0100F90010F6
:0100FA0010F5
:0100FB0010F4
:0100FC0010F3
:0100FD0010F2
:0100FE0010F1
:0100FF0010F0
:00000001ff
