:020000040000FA
:0100000001FE
:0100010001FD
:0100020001FC
:0100030001FB
:0100040001FA
:0100050001F9
:0100060001F8
:0100070001F7
:0100080001F6
:0100090001F5
:01000A0001F4
:01000B0001F3
:01000C0001F2
:01000D0001F1
:01000E0001F0
:01000F0001EF
:0100100001EE
:0100110001ED
:0100120001EC
:0100130001EB
:0100140002E9
:0100150002E8
:0100160002E7
:0100170002E6
:0100180002E5
:0100190002E4
:01001A0002E3
:01001B0002E2
:01001C0002E1
:01001D0002E0
:01001E0002DF
:01001F0002DE
:0100200002DD
:0100210002DC
:0100220002DB
:0100230002DA
:0100240002D9
:0100250002D8
:0100260002D7
:0100270002D6
:0100280002D5
:0100290002D4
:01002A0002D3
:01002B0003D1
:01002C0003D0
:01002D0003CF
:01002E0003CE
:01002F0003CD
:0100300003CC
:0100310003CB
:0100320003CA
:0100330003C9
:0100340003C8
:0100350003C7
:0100360003C6
:0100370003C5
:0100380003C4
:0100390003C3
:01003A0003C2
:01003B0003C1
:01003C0003C0
:01003D0003BF
:01003E0003BE
:01003F0003BD
:0100400003BC
:0100410003BB
:0100420001BC
:0100430001BB
:0100440001BA
:0100450001B9
:0100460001B8
:0100470001B7
:0100480001B6
:0100490001B5
:01004A0001B4
:01004B0001B3
:01004C0001B2
:01004D0001B1
:01004E0006AB
:01004F0006AA
:0100500006A9
:0100510006A8
:0100520006A7
:0100530006A6
:0100540006A5
:0100550006A4
:0100560006A3
:0100570006A2
:0100580006A1
:0100590006A0
:01005A00069F
:01005B00069E
:01005C00069D
:01005D00069C
:01005E00069B
:01005F00069A
:010060000699
:010061000698
:010062000697
:010063000696
:010064000695
:010065000694
:010066000198
:010067000197
:010068000196
:010069000195
:01006A000194
:01006B000193
:01006C000192
:01006D000191
:01006E000190
:01006F00018F
:01007000018E
:01007100018D
:01007200018C
:01007300018B
:01007400018A
:010075000189
:010076000188
:010077000187
:010078000186
:010079000185
:01007A000382
:01007B000381
:01007C000380
:01007D00037F
:01007E00037E
:01007F00037D
:01008000037C
:01008100037B
:01008200037A
:010083000379
:010084000378
:010085000377
:010086000376
:010087000375
:010088000374
:010089000373
:01008A000372
:01008B000371
:01008C000370
:01008D00036F
:01008E00036E
:01008F00036D
:01009000016E
:01009100016D
:01009200016C
:01009300016B
:01009400016A
:010095000169
:010096000168
:010097000167
:010098000166
:010099000165
:01009A000164
:01009B000163
:01009C000162
:01009D000161
:01009E000160
:01009F00025E
:0100A000025D
:0100A100025C
:0100A200025B
:0100A300025A
:0100A4000259
:0100A5000258
:0100A6000257
:0100A7000256
:0100A8000255
:0100A9000254
:0100AA000253
:0100AB000252
:0100AC000251
:0100AD000250
:0100AE00034E
:0100AF00034D
:0100B000034C
:0100B100034B
:0100B200034A
:0100B3000349
:0100B4000348
:0100B5000347
:0100B6000346
:0100B7000345
:0100B8000344
:0100B9000343
:0100BA000342
:0100BB000341
:0100BC000340
:0100BD000141
:0100BE000140
:0100BF00013F
:0100C000013E
:0100C100013D
:0100C200013C
:0100C300013B
:0100C400013A
:0100C5000139
:0100C6000138
:0100C7000137
:0100C8000136
:0100C9000135
:0100CA000134
:0100CB000133
:0100CC000132
:0100CD000131
:0100CE000130
:0100CF00012F
:0100D000012E
:0100D100012D
:0100D200012C
:0100D300012B
:0100D400012A
:0100D5000129
:0100D6000128
:0100D7000127
:0100D8000126
:0100D9000125
:0100DA000124
:0100DB000123
:0100DC000122
:0100DD000121
:0100DE000120
:0100DF00011F
:0100E000011E
:0100E100011D
:0100E200011C
:0100E300011B
:0100E400011A
:0100E5000119
:0100E6000118
:0100E7000117
:0100E8000116
:0100E9000115
:0100EA000114
:0100EB000113
:0100EC000112
:0100ED000111
:0100EE000110
:0100EF00010F
:0100F000010E
:0100F100010D
:0100F200010C
:0100F300010B
:0100F400010A
:0100F5000109
:0100F6000108
:0100F7000107
:0100F8000106
:0100F9000105
:0100FA000104
:0100FB000103
:0100FC000102
:0100FD000101
:0100FE000100
:0100FF0001FF
:00000001ff
