:020000040000FA
:0100000014EB
:0100010014EA
:0100020014E9
:0100030014E8
:0100040009F2
:0100050009F1
:0100060009F0
:0100070009EF
:0100080009EE
:0100090003F3
:01000A0014E1
:01000B0014E0
:01000C0014DF
:01000D0009E9
:01000E0009E8
:01000F0009E7
:0100100004EB
:0100110004EA
:0100120003EA
:0100130001EB
:0100140014D7
:0100150014D6
:0100160014D5
:0100170009DF
:0100180009DE
:0100190009DD
:01001A0009DC
:01001B0009DB
:01001C0003E0
:01001D0014CE
:01001E0014CD
:01001F0014CC
:0100200014CB
:0100210014CA
:0100220014C9
:0100230007D5
:0100240009D2
:0100250009D1
:0100260009D0
:0100270004D4
:0100280004D3
:0100290003D3
:01002A0001D4
:01002B0014C0
:01002C0014BF
:01002D0014BE
:01002E0009C8
:01002F0009C7
:0100300009C6
:0100310009C5
:0100320009C4
:0100330003C9
:0100340014B7
:0100350014B6
:0100360014B5
:0100370014B4
:0100380014B3
:0100390014B2
:01003A0007BE
:01003B0009BB
:01003C0009BA
:01003D0009B9
:01003E0004BD
:01003F0004BC
:0100400003BC
:0100410001BD
:0100420014A9
:0100430014A8
:0100440009B2
:0100450009B1
:0100460009B0
:0100470014A4
:0100480014A3
:0100490014A2
:01004A0009AC
:01004B0009AB
:01004C0009AA
:01004D0003AF
:01004E00149D
:01004F00149C
:01005000149B
:01005100149A
:010052001499
:0100530009A3
:0100540009A2
:0100550009A1
:0100560009A0
:0100570003A5
:010058001493
:010059001492
:01005A001491
:01005B001490
:01005C00148F
:01005D00148E
:01005E00148D
:01005F000997
:010060000996
:010061000995
:010062000499
:010063000399
:01006400019A
:010065000199
:010066001485
:010067001484
:010068001483
:010069001482
:01006A00098C
:01006B00098B
:01006C00098A
:01006D000989
:01006E000988
:01006F00038D
:01007000147B
:01007100147A
:010072001479
:010073000983
:010074000982
:010075000981
:010076000485
:010077000484
:010078000384
:010079000185
:01007A001471
:01007B001470
:01007C00146F
:01007D00146E
:01007E000978
:01007F000977
:010080000976
:010081000975
:010082000974
:010083000379
:010084001467
:010085001466
:010086001465
:010087001464
:010088001463
:01008900096D
:01008A00096C
:01008B00096B
:01008C00046F
:01008D00046E
:01008E00036E
:01008F00016F
:01009000145B
:010091000965
:010092000964
:010093000963
:010094000962
:010095000961
:010096001455
:010097001454
:010098001453
:01009900095D
:01009A00095C
:01009B00095B
:01009C00045F
:01009D00035F
:01009E000160
:01009F00144C
:0100A0000956
:0100A1000955
:0100A2000954
:0100A3000953
:0100A4001447
:0100A5001446
:0100A6001445
:0100A700094F
:0100A800094E
:0100A900094D
:0100AA000451
:0100AB000450
:0100AC000350
:0100AD000151
:0100AE00143D
:0100AF000947
:0100B0000946
:0100B1000945
:0100B2000944
:0100B3000943
:0100B4001437
:0100B5001436
:0100B6001435
:0100B700093F
:0100B800093E
:0100B900093D
:0100BA000441
:0100BB000341
:0100BC000142
:0100BD00142E
:0100BE00142D
:0100BF00142C
:0100C000142B
:0100C100142A
:0100C2001429
:0100C3001428
:0100C4001427
:0100C5001426
:0100C6001425
:0100C7001424
:0100C8001423
:0100C9001422
:0100CA001421
:0100CB001420
:0100CC00141F
:0100CD00141E
:0100CE00141D
:0100CF00141C
:0100D000141B
:0100D100141A
:0100D2001419
:0100D3001418
:0100D4001417
:0100D5001416
:0100D6001415
:0100D7001414
:0100D8001413
:0100D9001412
:0100DA001411
:0100DB001410
:0100DC00140F
:0100DD00140E
:0100DE00140D
:0100DF00140C
:0100E000140B
:0100E100140A
:0100E2001409
:0100E3001408
:0100E4001407
:0100E5001406
:0100E6001405
:0100E7001404
:0100E8001403
:0100E9001402
:0100EA001401
:0100EB001400
:0100EC0014FF
:0100ED0014FE
:0100EE0014FD
:0100EF0014FC
:0100F00014FB
:0100F10014FA
:0100F20014F9
:0100F30014F8
:0100F40014F7
:0100F50014F6
:0100F60014F5
:0100F70014F4
:0100F80014F3
:0100F90014F2
:0100FA0014F1
:0100FB0014F0
:0100FC0014EF
:0100FD0014EE
:0100FE0014ED
:0100FF0014EC
:00000001ff
