:020000040000FA
:0300000001FFFEFF
:0300010001FFFDFF
:0300020001FFFCFF
:0300030001FFF802
:0300040001FFF405
:0300050001FFEF09
:0300060001FFE80F
:0300070001FFE016
:0300080001FFD71E
:0300090001FFCC28
:03000A0001FFC033
:03000B0001FFB33F
:03000C0001FFA54C
:03000D0001FF965A
:03000E0001FF856A
:03000F0001FF737B
:0300100001FF608D
:0300110001FF4CA0
:0300120001FF36B5
:0300130001FF1FCB
:0300140001FF07E2
:0300150001FEEEFB
:0300160001FED414
:0300170001FEB82F
:0300180001FE9B4B
:0300190001FE7D68
:03001A0001FE5D87
:03001B0001FE3DA6
:03001C0001FE1BC7
:03001D0001FDF8EA
:03001E0001FDD30E
:03001F0001FDAE32
:0300200001FD8758
:0300210001FD5F7F
:0300220001FD36A7
:0300230001FD0BD1
:0300240001FCDFFD
:0300250001FCB229
:0300260001FC8456
:0300270001FC5584
:0300280001FC24B4
:0300290001FBF2E6
:03002A0001FBBF18
:03002B0001FB8B4B
:03002C0001FB567F
:03002D0001FB1FB5
:03002E0001FAE7ED
:03002F0001FAAE25
:0300300001FA735F
:0300310001FA3899
:0300320001F9FBD6
:0300330001F9BD13
:0300340001F97E51
:0300350001F93D91
:0300360001F8FBD3
:0300370001F8B815
:0300380001F87458
:0300390001F82F9C
:03003A0001F7E8E3
:03003B0001F7A129
:03003C0001F75871
:03003D0001F70DBB
:03003E0001F6C206
:03003F0001F67552
:0300400001F6289E
:0300410001F5D8EE
:0300420001F5883D
:0300430001F5378D
:0300440001F4E4E0
:0300450001F49033
:0300460001F43B87
:0300470001F3E5DD
:0300480001F38D34
:0300490001F3358B
:03004A0001F2DBE5
:03004B0001F2803F
:03004C0001F2239B
:03004D0001F1C6F8
:03004E0001F16756
:03004F0001F107B5
:0300500001F0A616
:0300510001F04477
:0300520001EFE0DB
:0300530001EF7B3F
:0300540001EF16A3
:0300550001EEAF0A
:0300560001EE4672
:0300570001EDDDDB
:0300580001ED7245
:0300590001ED06B0
:03005A0001EC991D
:03005B0001EC2B8A
:03005C0001EBBCF9
:03005D0001EB4B69
:03005E0001EAD9DB
:03005F0001EA664D
:0300600001E9F2C1
:0300610001E97D35
:0300620001E906AB
:0300630001E88F22
:0300640001E8169A
:0300650001E79C14
:0300660001E7218E
:0300670001E6A40B
:0300680001E62787
:0300690001E5A806
:03006A0001E52885
:03006B0001E4A706
:03006C0001E42587
:03006D0001E3A10B
:03006E0001E31D8E
:03006F0001E29714
:0300700001E2109A
:0300710001E18822
:0300720001E0FFAB
:0300730001E07534
:0300740001DFE9C0
:0300750001DF5C4C
:0300760001DECFD9
:0300770001DE4067
:0300780001DDAFF8
:0300790001DD1E88
:03007A0001DC8C1A
:03007B0001DBF8AE
:03007C0001DB6342
:03007D0001DACDD8
:03007E0001DA366E
:03007F0001D99E06
:0300800001D9059E
:0300810001D86A39
:0300820001D7CFD4
:0300830001D73270
:0300840001D6940E
:0300850001D5F5AD
:0300860001D5554C
:0300870001D4B4ED
:0300880001D4118F
:0300890001D36E32
:03008A0001D2C9D7
:03008B0001D2247B
:03008C0001D17D22
:03008D0001D0D5CA
:03008E0001D02B73
:03008F0001CF811D
:0300900001CED6C8
:0300910001CE2974
:0300920001CD7C21
:0300930001CCCDD0
:0300940001CC1D7F
:0300950001CB6C30
:0300960001CABAE2
:0300970001CA0794
:0300980001C95348
:0300990001C89EFD
:03009A0001C7E7B4
:03009B0001C7306A
:03009C0001C67723
:03009D0001C5BDDD
:03009E0001C50297
:03009F0001C44653
:0300A00001C38910
:0300A10001C2CBCE
:0300A20001C20C8C
:0300A30001C14C4C
:0300A40001C08B0D
:0300A50001BFC8D0
:0300A60001BF0592
:0300A70001BE4057
:0300A80001BD7A1D
:0300A90001BCB4E3
:0300AA0001BBECAB
:0300AB0001BB2373
:0300AC0001BA593D
:0300AD0001B98E08
:0300AE0001B8C2D4
:0300AF0001B7F5A1
:0300B00001B7266F
:0300B10001B6573E
:0300B20001B5870E
:0300B30001B4B6DF
:0300B40001B3E3B2
:0300B50001B31084
:0300B60001B23B59
:0300B70001B1662E
:0300B80001B08F05
:0300B90001AFB7DD
:0300BA0001AEDFB5
:0300BB0001AE058E
:0300BC0001AD2A69
:0300BD0001AC4E45
:0300BE0001AB7122
:0300BF0001AA94FF
:0300C00001A9B5DE
:0300C10001A8D5BE
:0300C20001A7F49F
:0300C30001A71280
:0300C40001A62F63
:0300C50001A54B47
:0300C60001A4662C
:0300C70001A38012
:0300C80001A299F9
:0300C90001A1B1E1
:0300CA0001A0C8CA
:0300CB00019FDEB4
:0300CC00019EF39F
:0300CD00019E078A
:0300CE00019D1A77
:0300CF00019C2B66
:0300D000019B3C55
:0300D100019A4C45
:0300D20001995B36
:0300D30001986928
:0300D4000197761B
:0300D5000196820F
:0300D60001958D04
:0300D700019497FA
:0300D8000193A1F0
:0300D9000192A9E8
:0300DA000191B0E1
:0300DB000190B6DB
:0300DC00018FBBD6
:0300DD00018EBFD2
:0300DE00018DC3CE
:0300DF00018CC5CC
:0300E000018BC6CB
:0300E100018AC7CA
:0300E2000189C6CB
:0300E3000188C5CC
:0300E4000187C2CF
:0300E5000186BFD2
:0300E6000185BBD6
:0300E7000184B6DB
:0300E8000183AFE2
:0300E9000182A8E9
:0300EA000181A0F1
:0300EB00018097FA
:0300EC00017F8D04
:0300ED00017E820F
:0300EE00017D771A
:0300EF00017C6A27
:0300F000017B5C35
:0300F100017A4E43
:0300F20001793F52
:0300F30001782E63
:0300F40001771D74
:0300F50001760B86
:0300F6000174F89A
:0300F7000173E4AE
:0300F8000172CFC3
:0300F9000171B9D9
:0300FA000170A3EF
:0300FB00016F8B07
:0300FC00016E731F
:0300FD00016D5A38
:0300FE00016C3F53
:0300FF00016B246E
:00000001ff
