:020000040000FA
:0100000001FE
:0100010001FD
:0100020001FC
:0100030001FB
:0100040001FA
:0100050001F9
:0100060001F8
:0100070001F7
:0100080001F6
:0100090001F5
:01000A0001F4
:01000B0001F3
:01000C0001F2
:01000D0001F1
:01000E0001F0
:01000F0001EF
:0100100008E7
:0100110001ED
:0100120001EC
:0100130001EB
:0100140001EA
:0100150001E9
:0100160001E8
:0100170001E7
:0100180001E6
:0100190001E5
:01001A0001E4
:01001B0001E3
:01001C0001E2
:01001D0001E1
:01001E0001E0
:01001F0001DF
:0100200001DE
:0100210001DD
:0100220001DC
:0100230001DB
:0100240001DA
:0100250001D9
:0100260001D8
:0100270001D7
:0100280001D6
:0100290001D5
:01002A0001D4
:01002B0001D3
:01002C0001D2
:01002D0001D1
:01002E0001D0
:01002F0001CF
:0100300001CE
:0100310001CD
:0100320001CC
:0100330001CB
:0100340001CA
:0100350001C9
:0100360001C8
:0100370001C7
:0100380001C6
:0100390001C5
:01003A0001C4
:01003B0001C3
:01003C0001C2
:01003D0001C1
:01003E0001C0
:01003F0001BF
:0100400001BE
:0100410001BD
:0100420001BC
:0100430001BB
:0100440001BA
:0100450001B9
:0100460001B8
:0100470001B7
:0100480001B6
:0100490001B5
:01004A0001B4
:01004B0001B3
:01004C0001B2
:01004D0001B1
:01004E0001B0
:01004F0001AF
:0100500001AE
:0100510001AD
:0100520001AC
:0100530001AB
:0100540001AA
:0100550001A9
:0100560001A8
:0100570001A7
:0100580001A6
:0100590001A5
:01005A0001A4
:01005B0001A3
:01005C0001A2
:01005D0001A1
:01005E0001A0
:01005F00019F
:01006000019E
:01006100019D
:01006200019C
:01006300019B
:01006400019A
:010065000199
:010066000198
:010067000197
:010068000196
:010069000195
:01006A000194
:01006B000193
:01006C000192
:01006D000191
:01006E000190
:01006F00018F
:01007000018E
:01007100018D
:01007200018C
:01007300018B
:01007400018A
:010075000189
:010076000188
:010077000187
:010078000186
:010079000185
:01007A000184
:01007B000183
:01007C000182
:01007D000181
:01007E000180
:01007F00017F
:01008000017E
:01008100017D
:01008200017C
:01008300017B
:01008400017A
:010085000179
:010086000178
:010087000177
:010088000176
:010089000175
:01008A000174
:01008B000173
:01008C000172
:01008D000171
:01008E000170
:01008F00016F
:01009000016E
:01009100016D
:01009200016C
:01009300016B
:01009400016A
:010095000169
:010096000168
:010097000167
:010098000166
:010099000165
:01009A000164
:01009B000163
:01009C000162
:01009D000161
:01009E000160
:01009F00015F
:0100A000015E
:0100A100015D
:0100A200015C
:0100A300015B
:0100A400015A
:0100A5000159
:0100A6000158
:0100A7000157
:0100A8000156
:0100A9000155
:0100AA000154
:0100AB000153
:0100AC000152
:0100AD000151
:0100AE000150
:0100AF00014F
:0100B000014E
:0100B100014D
:0100B200014C
:0100B300014B
:0100B400014A
:0100B5000149
:0100B6000148
:0100B7000147
:0100B8000146
:0100B9000145
:0100BA000144
:0100BB000143
:0100BC000142
:0100BD000141
:0100BE000140
:0100BF00013F
:0100C000013E
:0100C100013D
:0100C200013C
:0100C300013B
:0100C400013A
:0100C5000139
:0100C6000138
:0100C7000137
:0100C8000136
:0100C9000135
:0100CA000134
:0100CB000133
:0100CC000132
:0100CD000131
:0100CE000130
:0100CF00012F
:0100D000012E
:0100D100012D
:0100D200012C
:0100D300012B
:0100D400012A
:0100D5000129
:0100D6000128
:0100D7000127
:0100D8000126
:0100D9000125
:0100DA000124
:0100DB000123
:0100DC000122
:0100DD000121
:0100DE000120
:0100DF00011F
:0100E000011E
:0100E100011D
:0100E200011C
:0100E300011B
:0100E400011A
:0100E5000119
:0100E6000118
:0100E7000117
:0100E8000116
:0100E9000115
:0100EA000114
:0100EB000113
:0100EC000112
:0100ED000111
:0100EE000110
:0100EF00010F
:0100F000010E
:0100F100010D
:0100F200010C
:0100F300010B
:0100F400010A
:0100F5000109
:0100F6000108
:0100F7000107
:0100F8000106
:0100F9000105
:0100FA000104
:0100FB000103
:0100FC000102
:0100FD000101
:0100FE000100
:0100FF0001FF
:0101000001FD
:0101010001FC
:0101020001FB
:0101030001FA
:0101040001F9
:0101050001F8
:0101060001F7
:0101070001F6
:0101080001F5
:0101090001F4
:01010A0001F3
:01010B0001F2
:01010C0001F1
:01010D0001F0
:01010E0001EF
:01010F0001EE
:0101100001ED
:0101110001EC
:0101120001EB
:0101130001EA
:0101140001E9
:0101150001E8
:0101160001E7
:0101170001E6
:0101180001E5
:0101190001E4
:01011A0001E3
:01011B0001E2
:01011C0001E1
:01011D0001E0
:01011E0001DF
:01011F0001DE
:0101200001DD
:0101210001DC
:0101220001DB
:0101230001DA
:0101240001D9
:0101250001D8
:0101260001D7
:0101270001D6
:0101280001D5
:0101290001D4
:01012A0001D3
:01012B0001D2
:01012C0001D1
:01012D0001D0
:01012E0001CF
:01012F0001CE
:0101300001CD
:0101310001CC
:0101320001CB
:0101330001CA
:0101340001C9
:0101350001C8
:0101360001C7
:0101370001C6
:0101380001C5
:0101390001C4
:01013A0001C3
:01013B0001C2
:01013C0001C1
:01013D0001C0
:01013E0001BF
:01013F0001BE
:0101400001BD
:0101410001BC
:0101420001BB
:0101430001BA
:0101440001B9
:0101450001B8
:0101460001B7
:0101470001B6
:0101480001B5
:0101490001B4
:01014A0001B3
:01014B0001B2
:01014C0001B1
:01014D0001B0
:01014E0001AF
:01014F0001AE
:0101500001AD
:0101510001AC
:0101520001AB
:0101530001AA
:0101540001A9
:0101550001A8
:0101560001A7
:0101570001A6
:0101580001A5
:0101590001A4
:01015A0001A3
:01015B0001A2
:01015C0001A1
:01015D0001A0
:01015E00019F
:01015F00019E
:01016000019D
:01016100019C
:01016200019B
:01016300019A
:010164000199
:010165000198
:010166000197
:010167000196
:010168000195
:010169000194
:01016A000193
:01016B000192
:01016C000191
:01016D000190
:01016E00018F
:01016F00018E
:01017000018D
:01017100018C
:01017200018B
:01017300018A
:010174000189
:010175000188
:010176000187
:010177000186
:010178000185
:010179000184
:01017A000183
:01017B000182
:01017C000181
:01017D000180
:01017E00017F
:01017F00017E
:01018000017D
:01018100017C
:01018200017B
:01018300017A
:010184000179
:010185000178
:010186000177
:010187000176
:010188000175
:010189000174
:01018A000173
:01018B000172
:01018C000171
:01018D000170
:01018E00016F
:01018F00016E
:01019000016D
:01019100016C
:01019200016B
:01019300016A
:010194000169
:010195000168
:010196000167
:010197000166
:010198000165
:010199000164
:01019A000163
:01019B000162
:01019C000161
:01019D000160
:01019E00015F
:01019F00015E
:0101A000015D
:0101A100015C
:0101A200015B
:0101A300015A
:0101A4000159
:0101A5000158
:0101A6000157
:0101A7000156
:0101A8000155
:0101A9000154
:0101AA000153
:0101AB000152
:0101AC000151
:0101AD000150
:0101AE00014F
:0101AF00014E
:0101B000014D
:0101B100014C
:0101B200014B
:0101B300014A
:0101B4000149
:0101B5000148
:0101B6000147
:0101B7000146
:0101B8000145
:0101B9000144
:0101BA000143
:0101BB000142
:0101BC000141
:0101BD000140
:0101BE00013F
:0101BF00013E
:0101C000013D
:0101C100013C
:0101C200013B
:0101C300013A
:0101C4000139
:0101C5000138
:0101C6000137
:0101C7000136
:0101C8000135
:0101C9000134
:0101CA000133
:0101CB000132
:0101CC000131
:0101CD000130
:0101CE00012F
:0101CF00012E
:0101D000012D
:0101D100012C
:0101D200012B
:0101D300012A
:0101D4000129
:0101D5000128
:0101D6000127
:0101D7000126
:0101D8000125
:0101D9000124
:0101DA000123
:0101DB000122
:0101DC000121
:0101DD000120
:0101DE00011F
:0101DF00011E
:0101E000011D
:0101E100011C
:0101E200011B
:0101E300011A
:0101E4000119
:0101E5000118
:0101E6000117
:0101E7000116
:0101E8000115
:0101E9000114
:0101EA000113
:0101EB000112
:0101EC000111
:0101ED000110
:0101EE00010F
:0101EF00010E
:0101F000010D
:0101F100010C
:0101F200010B
:0101F300010A
:0101F4000109
:0101F5000108
:0101F6000107
:0101F7000106
:0101F8000105
:0101F9000104
:0101FA000103
:0101FB000102
:0101FC000101
:0101FD000100
:0101FE0001FF
:0101FF0001FE
:00000001ff
