:020000040000FA
:03000000000000FD
:0300010000019269
:03000200000324D4
:030003000004B640
:03000400000648AB
:030005000007DB16
:0300060000096D81
:03000700000AFFED
:03000800000C9158
:03000900000E23C3
:03000A00000FB52F
:03000B000011469B
:03000C000012D807
:03000D0000146A72
:03000E000015FCDE
:03000F0000178E49
:0300100000191FB5
:03001100001AB121
:03001200001C428D
:03001300001DD4F9
:03001400001F6565
:030015000020F7D1
:030016000022883D
:03001700002419A9
:030018000025AA16
:0300190000273B82
:03001A000028CCEF
:03001B00002A5D5B
:03001C00002BEDC9
:03001D00002D7E35
:03001E00002F0FA1
:03001F0000309F0F
:0300200000322F7C
:030021000033BFEA
:0300220000354F57
:030023000036DFC5
:0300240000386F32
:030025000039FEA1
:03002600003B8E0E
:03002700003D1D7C
:03002800003EACEB
:0300290000403B59
:03002A000041CAC8
:03002B0000435936
:03002C000044E7A6
:03002D0000467614
:03002E0000480483
:03002F00004992F3
:03003000004B2062
:03003100004CAED2
:03003200004E3B42
:03003300004FC8B3
:0300340000515622
:030035000052E294
:0300360000546F04
:030037000055FC75
:03003800005788E6
:0300390000591457
:03003A00005AA0C9
:03003B00005C2C3A
:03003C00005DB7AD
:03003D00005F421F
:03003E000060CD92
:03003F0000625804
:030040000063E278
:0300410000656DEA
:030042000066F75E
:03004300006881D1
:03004400006A0A45
:03004500006B93BA
:03004600006D1C2E
:03004700006EA5A3
:0300480000702E17
:030049000071B68D
:03004A0000733E02
:03004B000074C579
:03004C0000764DEE
:03004D000077D465
:03004E0000795BDB
:03004F00007AE153
:03005000007C67CA
:03005100007DED42
:03005200007F73B9
:030053000080F832
:0300540000827DAA
:0300550000840222
:030056000085869C
:0300570000870A15
:0300580000888E8F
:03005900008A1109
:03005A00008B9484
:03005B00008D17FE
:03005C00008E9A79
:03005D0000901CF4
:03005E0000919D71
:03005F0000931FEC
:030060000094A069
:03006100009620E6
:030062000097A064
:03006300009920E1
:03006400009AA05F
:03006500009C1FDD
:03006600009D9E5C
:03006700009F1CDB
:0300680000A09A5B
:0300690000A218DA
:03006A0000A3955B
:03006B0000A512DB
:03006C0000A68E5D
:03006D0000A80ADE
:03006E0000A98660
:03006F0000AB01E2
:0300700000AC7C65
:0300710000ADF7E8
:0300720000AF716B
:0300730000B0EAF0
:0300740000B26374
:0300750000B3DCF9
:0300760000B5547E
:0300770000B6CC04
:0300780000B8438A
:0300790000B9BA11
:03007A0000BB3197
:03007B0000BCA71F
:03007C0000BE1DA6
:03007D0000BF922F
:03007E0000C106B8
:03007F0000C27B41
:0300800000C3EECC
:0300810000C56255
:0300820000C6D4E1
:0300830000C8476B
:0300840000C9B9F7
:0300850000CB2A83
:0300860000CC9B10
:0300870000CE0B9D
:0300880000CF7B2B
:0300890000D0EABA
:03008A0000D25948
:03008B0000D3C8D7
:03008C0000D53567
:03008D0000D6A3F7
:03008E0000D81087
:03008F0000D97C19
:0300900000DAE8AB
:0300910000DC533D
:0300920000DDBED0
:0300930000DF2863
:0300940000E091F8
:0300950000E1FB8C
:0300960000E36321
:0300970000E4CBB7
:0300980000E6334C
:0300990000E799E4
:03009A0000E9007A
:03009B0000EA6612
:03009C0000EBCBAB
:03009D0000ED2F44
:03009E0000EE94DD
:03009F0000EFF778
:0300A00000F15A12
:0300A10000F2BCAE
:0300A20000F41E49
:0300A30000F57FE6
:0300A40000F6E083
:0300A50000F84020
:0300A60000F99FBF
:0300A70000FAFE5E
:0300A80000FC5CFD
:0300A90000FDBA9D
:0300AA0000FF173D
:0300AB00010073DE
:0300AC000101CF80
:0300AD0001032A22
:0300AE00010484C6
:0300AF000105DE6A
:0300B0000107370E
:0300B100010890B3
:0300B2000109E859
:0300B300010B3FFF
:0300B400010C96A6
:0300B500010DEC4E
:0300B600010F41F6
:0300B7000110969F
:0300B8000111EA49
:0300B90001133EF2
:0300BA000114909E
:0300BB000115E24A
:0300BC00011734F5
:0300BD00011884A3
:0300BE000119D550
:0300BF00011B24FE
:0300C000011C73AD
:0300C100011DC15D
:0300C200011F0E0D
:0300C30001205BBE
:0300C4000121A671
:0300C5000122F223
:0300C60001243CD6
:0300C7000125868A
:0300C8000126CF3F
:0300C900012818F3
:0300CA0001295FAA
:0300CB00012AA661
:0300CC00012BED18
:0300CD00012D32D0
:0300CE00012E7789
:0300CF00012FBB43
:0300D0000130FEFE
:0300D100013241B8
:0300D20001338374
:0300D3000134C431
:0300D400013604EE
:0300D500013744AC
:0300D6000138836B
:0300D7000139C12B
:0300D800013AFEEC
:0300D900013C3BAC
:0300DA00013D776E
:0300DB00013EB231
:0300DC00013FECF5
:0300DD00014126B8
:0300DE0001425F7D
:0300DF0001439743
:0300E0000144CE0A
:0300E100014604D1
:0300E20001473A99
:0300E30001486F62
:0300E4000149A32C
:0300E500014AD6F7
:0300E600014C09C1
:0300E700014D3A8E
:0300E800014E6B5B
:0300E900014F9B29
:0300EA000150CBF7
:0300EB000151F9C7
:0300EC0001532796
:0300ED0001545467
:0300EE0001558039
:0300EF000156AB0C
:0300F0000157D5E0
:0300F1000158FFB4
:0300F200015A2789
:0300F300015B4F5F
:0300F400015C7636
:0300F500015D9D0D
:0300F600015EC2E6
:0300F700015FE6C0
:0300F80001610A99
:0300F90001622D74
:0300FA0001634F50
:0300FB000164702D
:0300FC000165900B
:0300FD000166B0E9
:0300FE000167CEC9
:0300FF000168ECA9
:00000001ff
