:020000040000FA
:0100000005FA
:0100010005F9
:0100020005F8
:0100030005F7
:0100040002F9
:0100050002F8
:0100060005F4
:0100070005F3
:0100080005F2
:0100090005F1
:01000A0005F0
:01000B0002F2
:01000C0005EE
:01000D0005ED
:01000E0005EC
:01000F0002EE
:0100100005EA
:0100110005E9
:0100120005E8
:0100130002EA
:0100140002E9
:0100150002E8
:0100160002E7
:0100170002E6
:0100180002E5
:0100190000E6
:01001A0000E5
:01001B0002E2
:01001C0002E1
:01001D0002E0
:01001E0002DF
:01001F0002DE
:0100200002DD
:0100210000DE
:0100220002DB
:0100230002DA
:0100240002D9
:0100250002D8
:0100260000D9
:0100270002D6
:0100280002D5
:0100290002D4
:01002A0000D5
:01002B0001D3
:01002C0001D2
:01002D0001D1
:01002E0000D1
:01002F0000D0
:0100300001CE
:0100310001CD
:0100320001CC
:0100330001CB
:0100340001CA
:0100350001C9
:0100360001C8
:0100370001C7
:0100380000C7
:0100390001C5
:01003A0001C4
:01003B0001C3
:01003C0001C2
:01003D0000C2
:01003E0001C0
:01003F0001BF
:0100400001BE
:0100410000BE
:0100420005B8
:0100430005B7
:0100440005B6
:0100450002B8
:0100460005B4
:0100470005B3
:0100480002B5
:0100490005B1
:01004A0005B0
:01004B0005AF
:01004C0002B1
:01004D0005AD
:01004E0000B1
:01004F0000B0
:0100500000AF
:0100510000AE
:0100520000AD
:0100530000AC
:0100540000AB
:0100550000AA
:0100560000A9
:0100570000A8
:0100580000A7
:0100590000A6
:01005A0000A5
:01005B0000A4
:01005C0000A3
:01005D0000A2
:01005E0000A1
:01005F0000A0
:01006000009F
:01006100009E
:01006200009D
:01006300009C
:01006400009B
:01006500009A
:010066000594
:010067000593
:010068000592
:010069000591
:01006A000590
:01006B00058F
:01006C000291
:01006D000290
:01006E00058C
:01006F00058B
:01007000058A
:01007100028C
:010072000588
:010073000587
:010074000586
:010075000288
:010076000584
:010077000583
:010078000582
:010079000284
:01007A000184
:01007B000183
:01007C000182
:01007D000181
:01007E000180
:01007F00017F
:01008000007F
:01008100007E
:01008200017C
:01008300017B
:01008400007B
:01008500007A
:010086000178
:010087000078
:010088000176
:010089000175
:01008A000174
:01008B000074
:01008C000172
:01008D000171
:01008E000170
:01008F000070
:01009000056A
:01009100026C
:01009200026B
:010093000567
:010094000566
:010095000565
:010096000564
:010097000266
:010098000562
:010099000561
:01009A000560
:01009B000262
:01009C00055E
:01009D00055D
:01009E00025F
:01009F00025E
:0100A000015E
:0100A100015D
:0100A200025B
:0100A300025A
:0100A4000259
:0100A5000159
:0100A6000257
:0100A7000256
:0100A8000255
:0100A9000155
:0100AA000253
:0100AB000252
:0100AC000251
:0100AD000151
:0100AE000150
:0100AF00014F
:0100B000014E
:0100B100014D
:0100B200014C
:0100B300014B
:0100B400014A
:0100B5000149
:0100B6000148
:0100B7000147
:0100B8000146
:0100B9000145
:0100BA000144
:0100BB000143
:0100BC000142
:0100BD00053D
:0100BE00053C
:0100BF00053B
:0100C000053A
:0100C1000539
:0100C2000538
:0100C3000537
:0100C4000536
:0100C5000535
:0100C6000534
:0100C7000533
:0100C8000532
:0100C9000531
:0100CA000530
:0100CB00052F
:0100CC00052E
:0100CD00052D
:0100CE00052C
:0100CF00052B
:0100D000052A
:0100D1000529
:0100D2000528
:0100D3000527
:0100D4000526
:0100D5000525
:0100D6000524
:0100D7000523
:0100D8000522
:0100D9000521
:0100DA000520
:0100DB00051F
:0100DC00051E
:0100DD00051D
:0100DE00051C
:0100DF00051B
:0100E000051A
:0100E1000519
:0100E2000518
:0100E3000517
:0100E4000516
:0100E5000515
:0100E6000514
:0100E7000513
:0100E8000512
:0100E9000511
:0100EA000510
:0100EB00050F
:0100EC00050E
:0100ED00050D
:0100EE00050C
:0100EF00050B
:0100F000050A
:0100F1000509
:0100F2000508
:0100F3000507
:0100F4000506
:0100F5000505
:0100F6000504
:0100F7000503
:0100F8000502
:0100F9000501
:0100FA000500
:0100FB0005FF
:0100FC0005FE
:0100FD0005FD
:0100FE0005FC
:0100FF0005FB
:00000001ff
